{
  "_format": "hh-sol-artifact-1",
  "contractName": "NFTMarket",
  "sourceName": "contracts/MarketPlace.sol",
  "abi": [
    {
      "inputs": [],
      "name": "acceptOwnership",
      "outputs": [],
      "stateMutability": "nonpayable",
      "type": "function"
    },
    {
      "inputs": [],
      "stateMutability": "nonpayable",
      "type": "constructor"
    },
    {
      "inputs": [
        {
          "internalType": "address",
          "name": "sender",
          "type": "address"
        },
        {
          "internalType": "uint256",
          "name": "tokenId",
          "type": "uint256"
        },
        {
          "internalType": "address",
          "name": "owner",
          "type": "address"
        }
      ],
      "name": "ERC721IncorrectOwner",
      "type": "error"
    },
    {
      "inputs": [
        {
          "internalType": "address",
          "name": "operator",
          "type": "address"
        },
        {
          "internalType": "uint256",
          "name": "tokenId",
          "type": "uint256"
        }
      ],
      "name": "ERC721InsufficientApproval",
      "type": "error"
    },
    {
      "inputs": [
        {
          "internalType": "address",
          "name": "approver",
          "type": "address"
        }
      ],
      "name": "ERC721InvalidApprover",
      "type": "error"
    },
    {
      "inputs": [
        {
          "internalType": "address",
          "name": "operator",
          "type": "address"
        }
      ],
      "name": "ERC721InvalidOperator",
      "type": "error"
    },
    {
      "inputs": [
        {
          "internalType": "address",
          "name": "owner",
          "type": "address"
        }
      ],
      "name": "ERC721InvalidOwner",
      "type": "error"
    },
    {
      "inputs": [
        {
          "internalType": "address",
          "name": "receiver",
          "type": "address"
        }
      ],
      "name": "ERC721InvalidReceiver",
      "type": "error"
    },
    {
      "inputs": [
        {
          "internalType": "address",
          "name": "sender",
          "type": "address"
        }
      ],
      "name": "ERC721InvalidSender",
      "type": "error"
    },
    {
      "inputs": [
        {
          "internalType": "uint256",
          "name": "tokenId",
          "type": "uint256"
        }
      ],
      "name": "ERC721NonexistentToken",
      "type": "error"
    },
    {
      "anonymous": false,
      "inputs": [
        {
          "indexed": true,
          "internalType": "address",
          "name": "owner",
          "type": "address"
        },
        {
          "indexed": true,
          "internalType": "address",
          "name": "approved",
          "type": "address"
        },
        {
          "indexed": true,
          "internalType": "uint256",
          "name": "tokenId",
          "type": "uint256"
        }
      ],
      "name": "Approval",
      "type": "event"
    },
    {
      "anonymous": false,
      "inputs": [
        {
          "indexed": true,
          "internalType": "address",
          "name": "owner",
          "type": "address"
        },
        {
          "indexed": true,
          "internalType": "address",
          "name": "operator",
          "type": "address"
        },
        {
          "indexed": false,
          "internalType": "bool",
          "name": "approved",
          "type": "bool"
        }
      ],
      "name": "ApprovalForAll",
      "type": "event"
    },
    {
      "inputs": [
        {
          "internalType": "address",
          "name": "to",
          "type": "address"
        },
        {
          "internalType": "uint256",
          "name": "tokenId",
          "type": "uint256"
        }
      ],
      "name": "approve",
      "outputs": [],
      "stateMutability": "nonpayable",
      "type": "function"
    },
    {
      "anonymous": false,
      "inputs": [
        {
          "indexed": false,
          "internalType": "uint256",
          "name": "_fromTokenId",
          "type": "uint256"
        },
        {
          "indexed": false,
          "internalType": "uint256",
          "name": "_toTokenId",
          "type": "uint256"
        }
      ],
      "name": "BatchMetadataUpdate",
      "type": "event"
    },
    {
      "inputs": [
        {
          "internalType": "uint256",
          "name": "tokenID",
          "type": "uint256"
        }
      ],
      "name": "buyNFT",
      "outputs": [],
      "stateMutability": "payable",
      "type": "function"
    },
    {
      "anonymous": false,
      "inputs": [
        {
          "indexed": true,
          "internalType": "bytes32",
          "name": "id",
          "type": "bytes32"
        }
      ],
      "name": "ChainlinkCancelled",
      "type": "event"
    },
    {
      "anonymous": false,
      "inputs": [
        {
          "indexed": true,
          "internalType": "bytes32",
          "name": "id",
          "type": "bytes32"
        }
      ],
      "name": "ChainlinkFulfilled",
      "type": "event"
    },
    {
      "anonymous": false,
      "inputs": [
        {
          "indexed": true,
          "internalType": "bytes32",
          "name": "id",
          "type": "bytes32"
        }
      ],
      "name": "ChainlinkRequested",
      "type": "event"
    },
    {
      "inputs": [
        {
          "internalType": "string",
          "name": "tokenURI",
          "type": "string"
        }
      ],
      "name": "createNFT",
      "outputs": [],
      "stateMutability": "nonpayable",
      "type": "function"
    },
    {
      "inputs": [
        {
          "internalType": "bytes32",
          "name": "_requestId",
          "type": "bytes32"
        },
        {
          "internalType": "uint256",
          "name": "_volume",
          "type": "uint256"
        }
      ],
      "name": "fulfill",
      "outputs": [],
      "stateMutability": "nonpayable",
      "type": "function"
    },
    {
      "inputs": [
        {
          "internalType": "uint256",
          "name": "tokenID",
          "type": "uint256"
        },
        {
          "internalType": "uint256",
          "name": "priceofNFT",
          "type": "uint256"
        }
      ],
      "name": "listNFT",
      "outputs": [],
      "stateMutability": "nonpayable",
      "type": "function"
    },
    {
      "anonymous": false,
      "inputs": [
        {
          "indexed": false,
          "internalType": "uint256",
          "name": "_tokenId",
          "type": "uint256"
        }
      ],
      "name": "MetadataUpdate",
      "type": "event"
    },
    {
      "anonymous": false,
      "inputs": [
        {
          "indexed": true,
          "internalType": "address",
          "name": "from",
          "type": "address"
        },
        {
          "indexed": true,
          "internalType": "address",
          "name": "to",
          "type": "address"
        }
      ],
      "name": "OwnershipTransferRequested",
      "type": "event"
    },
    {
      "anonymous": false,
      "inputs": [
        {
          "indexed": true,
          "internalType": "address",
          "name": "from",
          "type": "address"
        },
        {
          "indexed": true,
          "internalType": "address",
          "name": "to",
          "type": "address"
        }
      ],
      "name": "OwnershipTransferred",
      "type": "event"
    },
    {
      "anonymous": false,
      "inputs": [
        {
          "indexed": true,
          "internalType": "bytes32",
          "name": "requestId",
          "type": "bytes32"
        },
        {
          "indexed": false,
          "internalType": "uint256",
          "name": "volume",
          "type": "uint256"
        }
      ],
      "name": "RequestVolume",
      "type": "event"
    },
    {
      "inputs": [],
      "name": "requestVolumeData",
      "outputs": [
        {
          "internalType": "bytes32",
          "name": "requestId",
          "type": "bytes32"
        }
      ],
      "stateMutability": "nonpayable",
      "type": "function"
    },
    {
      "inputs": [
        {
          "internalType": "address",
          "name": "from",
          "type": "address"
        },
        {
          "internalType": "address",
          "name": "to",
          "type": "address"
        },
        {
          "internalType": "uint256",
          "name": "tokenId",
          "type": "uint256"
        }
      ],
      "name": "safeTransferFrom",
      "outputs": [],
      "stateMutability": "nonpayable",
      "type": "function"
    },
    {
      "inputs": [
        {
          "internalType": "address",
          "name": "from",
          "type": "address"
        },
        {
          "internalType": "address",
          "name": "to",
          "type": "address"
        },
        {
          "internalType": "uint256",
          "name": "tokenId",
          "type": "uint256"
        },
        {
          "internalType": "bytes",
          "name": "data",
          "type": "bytes"
        }
      ],
      "name": "safeTransferFrom",
      "outputs": [],
      "stateMutability": "nonpayable",
      "type": "function"
    },
    {
      "inputs": [
        {
          "internalType": "address",
          "name": "operator",
          "type": "address"
        },
        {
          "internalType": "bool",
          "name": "approved",
          "type": "bool"
        }
      ],
      "name": "setApprovalForAll",
      "outputs": [],
      "stateMutability": "nonpayable",
      "type": "function"
    },
    {
      "anonymous": false,
      "inputs": [
        {
          "indexed": true,
          "internalType": "address",
          "name": "from",
          "type": "address"
        },
        {
          "indexed": true,
          "internalType": "address",
          "name": "to",
          "type": "address"
        },
        {
          "indexed": true,
          "internalType": "uint256",
          "name": "tokenId",
          "type": "uint256"
        }
      ],
      "name": "Transfer",
      "type": "event"
    },
    {
      "inputs": [
        {
          "internalType": "address",
          "name": "from",
          "type": "address"
        },
        {
          "internalType": "address",
          "name": "to",
          "type": "address"
        },
        {
          "internalType": "uint256",
          "name": "tokenId",
          "type": "uint256"
        }
      ],
      "name": "transferFrom",
      "outputs": [],
      "stateMutability": "nonpayable",
      "type": "function"
    },
    {
      "anonymous": false,
      "inputs": [
        {
          "indexed": false,
          "internalType": "uint256",
          "name": "tokenID",
          "type": "uint256"
        },
        {
          "indexed": false,
          "internalType": "address",
          "name": "from",
          "type": "address"
        },
        {
          "indexed": false,
          "internalType": "address",
          "name": "to",
          "type": "address"
        },
        {
          "indexed": false,
          "internalType": "string",
          "name": "tokenURI",
          "type": "string"
        },
        {
          "indexed": false,
          "internalType": "uint256",
          "name": "price",
          "type": "uint256"
        }
      ],
      "name": "TransferNFT",
      "type": "event"
    },
    {
      "inputs": [
        {
          "internalType": "address",
          "name": "to",
          "type": "address"
        }
      ],
      "name": "transferOwnership",
      "outputs": [],
      "stateMutability": "nonpayable",
      "type": "function"
    },
    {
      "inputs": [],
      "name": "withdrawLink",
      "outputs": [],
      "stateMutability": "nonpayable",
      "type": "function"
    },
    {
      "inputs": [
        {
          "internalType": "address",
          "name": "owner",
          "type": "address"
        }
      ],
      "name": "balanceOf",
      "outputs": [
        {
          "internalType": "uint256",
          "name": "",
          "type": "uint256"
        }
      ],
      "stateMutability": "view",
      "type": "function"
    },
    {
      "inputs": [
        {
          "internalType": "uint256",
          "name": "tokenId",
          "type": "uint256"
        }
      ],
      "name": "getApproved",
      "outputs": [
        {
          "internalType": "address",
          "name": "",
          "type": "address"
        }
      ],
      "stateMutability": "view",
      "type": "function"
    },
    {
      "inputs": [],
      "name": "getVolume",
      "outputs": [
        {
          "internalType": "uint256",
          "name": "",
          "type": "uint256"
        }
      ],
      "stateMutability": "view",
      "type": "function"
    },
    {
      "inputs": [
        {
          "internalType": "address",
          "name": "owner",
          "type": "address"
        },
        {
          "internalType": "address",
          "name": "operator",
          "type": "address"
        }
      ],
      "name": "isApprovedForAll",
      "outputs": [
        {
          "internalType": "bool",
          "name": "",
          "type": "bool"
        }
      ],
      "stateMutability": "view",
      "type": "function"
    },
    {
      "inputs": [],
      "name": "manager",
      "outputs": [
        {
          "internalType": "address",
          "name": "",
          "type": "address"
        }
      ],
      "stateMutability": "view",
      "type": "function"
    },
    {
      "inputs": [],
      "name": "name",
      "outputs": [
        {
          "internalType": "string",
          "name": "",
          "type": "string"
        }
      ],
      "stateMutability": "view",
      "type": "function"
    },
    {
      "inputs": [],
      "name": "owner",
      "outputs": [
        {
          "internalType": "address",
          "name": "",
          "type": "address"
        }
      ],
      "stateMutability": "view",
      "type": "function"
    },
    {
      "inputs": [
        {
          "internalType": "uint256",
          "name": "tokenId",
          "type": "uint256"
        }
      ],
      "name": "ownerOf",
      "outputs": [
        {
          "internalType": "address",
          "name": "",
          "type": "address"
        }
      ],
      "stateMutability": "view",
      "type": "function"
    },
    {
      "inputs": [
        {
          "internalType": "bytes4",
          "name": "interfaceId",
          "type": "bytes4"
        }
      ],
      "name": "supportsInterface",
      "outputs": [
        {
          "internalType": "bool",
          "name": "",
          "type": "bool"
        }
      ],
      "stateMutability": "view",
      "type": "function"
    },
    {
      "inputs": [],
      "name": "symbol",
      "outputs": [
        {
          "internalType": "string",
          "name": "",
          "type": "string"
        }
      ],
      "stateMutability": "view",
      "type": "function"
    },
    {
      "inputs": [
        {
          "internalType": "uint256",
          "name": "tokenId",
          "type": "uint256"
        }
      ],
      "name": "tokenURI",
      "outputs": [
        {
          "internalType": "string",
          "name": "",
          "type": "string"
        }
      ],
      "stateMutability": "view",
      "type": "function"
    },
    {
      "inputs": [],
      "name": "volume",
      "outputs": [
        {
          "internalType": "uint256",
          "name": "",
          "type": "uint256"
        }
      ],
      "stateMutability": "view",
      "type": "function"
    }
  ],
  "bytecode": "0x608060405260006007553480156200001657600080fd5b506040518060400160405280600681526020017f4b617274696b00000000000000000000000000000000000000000000000000008152506040518060400160405280600381526020017f4e4654000000000000000000000000000000000000000000000000000000000081525081600090816200009491906200036a565b508060019081620000a691906200036a565b50505033600960006101000a81548173ffffffffffffffffffffffffffffffffffffffff021916908373ffffffffffffffffffffffffffffffffffffffff16021790555062000451565b600081519050919050565b7f4e487b7100000000000000000000000000000000000000000000000000000000600052604160045260246000fd5b7f4e487b7100000000000000000000000000000000000000000000000000000000600052602260045260246000fd5b600060028204905060018216806200017257607f821691505b6020821081036200018857620001876200012a565b5b50919050565b60008190508160005260206000209050919050565b60006020601f8301049050919050565b600082821b905092915050565b600060088302620001f27fffffffffffffffffffffffffffffffffffffffffffffffffffffffffffffffff82620001b3565b620001fe8683620001b3565b95508019841693508086168417925050509392505050565b6000819050919050565b6000819050919050565b60006200024b620002456200023f8462000216565b62000220565b62000216565b9050919050565b6000819050919050565b62000267836200022a565b6200027f620002768262000252565b848454620001c0565b825550505050565b600090565b6200029662000287565b620002a38184846200025c565b505050565b5b81811015620002cb57620002bf6000826200028c565b600181019050620002a9565b5050565b601f8211156200031a57620002e4816200018e565b620002ef84620001a3565b81016020851015620002ff578190505b620003176200030e85620001a3565b830182620002a8565b50505b505050565b600082821c905092915050565b60006200033f600019846008026200031f565b1980831691505092915050565b60006200035a83836200032c565b9150826002028217905092915050565b6200037582620000f0565b67ffffffffffffffff811115620003915762000390620000fb565b5b6200039d825462000159565b620003aa828285620002cf565b600060209050601f831160018114620003e25760008415620003cd578287015190505b620003d985826200034c565b86555062000449565b601f198416620003f2866200018e565b60005b828110156200041c57848901518255600182019150602085019450602081019050620003f5565b868310156200043c578489015162000438601f8916826200032c565b8355505b6001600288020188555050505b505050505050565b612d4f80620004616000396000f3fe6080604052600436106100fe5760003560e01c806370a0823111610095578063a22cb46511610064578063a22cb46514610338578063b88d4fde14610361578063c87b56dd1461038a578063da2ed03e146103c7578063e985e9c5146103f0576100fe565b806370a082311461027c5780638da5cb5b146102b957806394383f14146102e457806395d89b411461030d576100fe565b806323b872dd116100d157806323b872dd146101d157806342842e0e146101fa57806351ed8288146102235780636352211e1461023f576100fe565b806301ffc9a71461010357806306fdde0314610140578063081812fc1461016b578063095ea7b3146101a8575b600080fd5b34801561010f57600080fd5b5061012a60048036038101906101259190611de6565b61042d565b6040516101379190611e2e565b60405180910390f35b34801561014c57600080fd5b5061015561048e565b6040516101629190611ed9565b60405180910390f35b34801561017757600080fd5b50610192600480360381019061018d9190611f31565b610520565b60405161019f9190611f9f565b60405180910390f35b3480156101b457600080fd5b506101cf60048036038101906101ca9190611fe6565b61053c565b005b3480156101dd57600080fd5b506101f860048036038101906101f39190612026565b610552565b005b34801561020657600080fd5b50610221600480360381019061021c9190612026565b610654565b005b61023d60048036038101906102389190611f31565b610674565b005b34801561024b57600080fd5b5061026660048036038101906102619190611f31565b6108d0565b6040516102739190611f9f565b60405180910390f35b34801561028857600080fd5b506102a3600480360381019061029e9190612079565b6108e2565b6040516102b091906120b5565b60405180910390f35b3480156102c557600080fd5b506102ce61099c565b6040516102db9190611f9f565b60405180910390f35b3480156102f057600080fd5b5061030b600480360381019061030691906120d0565b6109c2565b005b34801561031957600080fd5b50610322610aed565b60405161032f9190611ed9565b60405180910390f35b34801561034457600080fd5b5061035f600480360381019061035a919061213c565b610b7f565b005b34801561036d57600080fd5b50610388600480360381019061038391906122b1565b610b95565b005b34801561039657600080fd5b506103b160048036038101906103ac9190611f31565b610bb2565b6040516103be9190611ed9565b60405180910390f35b3480156103d357600080fd5b506103ee60048036038101906103e99190612394565b610cc5565b005b3480156103fc57600080fd5b50610417600480360381019061041291906123e1565b610d82565b6040516104249190611e2e565b60405180910390f35b6000634906490660e01b7bffffffffffffffffffffffffffffffffffffffffffffffffffffffff1916827bffffffffffffffffffffffffffffffffffffffffffffffffffffffff19161480610487575061048682610e16565b5b9050919050565b60606000805461049d90612450565b80601f01602080910402602001604051908101604052809291908181526020018280546104c990612450565b80156105165780601f106104eb57610100808354040283529160200191610516565b820191906000526020600020905b8154815290600101906020018083116104f957829003601f168201915b5050505050905090565b600061052b82610ef8565b5061053582610f80565b9050919050565b61054e8282610549610fbd565b610fc5565b5050565b600073ffffffffffffffffffffffffffffffffffffffff168273ffffffffffffffffffffffffffffffffffffffff16036105c45760006040517f64a0ae920000000000000000000000000000000000000000000000000000000081526004016105bb9190611f9f565b60405180910390fd5b60006105d883836105d3610fbd565b610fd7565b90508373ffffffffffffffffffffffffffffffffffffffff168173ffffffffffffffffffffffffffffffffffffffff161461064e578382826040517f64283d7b00000000000000000000000000000000000000000000000000000000815260040161064593929190612481565b60405180910390fd5b50505050565b61066f83838360405180602001604052806000815250610b95565b505050565b600060086000838152602001908152602001600020604051806040016040529081600082015481526020016001820160009054906101000a900473ffffffffffffffffffffffffffffffffffffffff1673ffffffffffffffffffffffffffffffffffffffff1673ffffffffffffffffffffffffffffffffffffffff16815250509050600081600001511161073d576040517f08c379a00000000000000000000000000000000000000000000000000000000081526004016107349061252a565b60405180910390fd5b34816000015114610783576040517f08c379a000000000000000000000000000000000000000000000000000000000815260040161077a90612596565b60405180910390fd5b61078e303384610552565b60006107bb60646107ad600a85600001516111f190919063ffffffff16565b61120790919063ffffffff16565b905060006107d682846000015161121d90919063ffffffff16565b9050826020015173ffffffffffffffffffffffffffffffffffffffff166108fc829081150290604051600060405180830381858888f19350505050158015610822573d6000803e3d6000fd5b50600960009054906101000a900473ffffffffffffffffffffffffffffffffffffffff1673ffffffffffffffffffffffffffffffffffffffff166108fc839081150290604051600060405180830381858888f1935050505015801561088b573d6000803e3d6000fd5b507fe6cb7b6ed8bb672ca991382326836fec5eb1ecef5c78331032416a55f4a325e484303360006040516108c29493929190612621565b60405180910390a150505050565b60006108db82610ef8565b9050919050565b60008073ffffffffffffffffffffffffffffffffffffffff168273ffffffffffffffffffffffffffffffffffffffff16036109555760006040517f89c62b6400000000000000000000000000000000000000000000000000000000815260040161094c9190611f9f565b60405180910390fd5b600360008373ffffffffffffffffffffffffffffffffffffffff1673ffffffffffffffffffffffffffffffffffffffff168152602001908152602001600020549050919050565b600960009054906101000a900473ffffffffffffffffffffffffffffffffffffffff1681565b60008111610a05576040517f08c379a00000000000000000000000000000000000000000000000000000000081526004016109fc906126eb565b60405180910390fd5b610a0f308361053c565b610a1a333084610552565b60405180604001604052808281526020013373ffffffffffffffffffffffffffffffffffffffff16815250600860008481526020019081526020016000206000820151816000015560208201518160010160006101000a81548173ffffffffffffffffffffffffffffffffffffffff021916908373ffffffffffffffffffffffffffffffffffffffff1602179055509050507fe6cb7b6ed8bb672ca991382326836fec5eb1ecef5c78331032416a55f4a325e482333084604051610ae1949392919061270b565b60405180910390a15050565b606060018054610afc90612450565b80601f0160208091040260200160405190810160405280929190818152602001828054610b2890612450565b8015610b755780601f10610b4a57610100808354040283529160200191610b75565b820191906000526020600020905b815481529060010190602001808311610b5857829003601f168201915b5050505050905090565b610b91610b8a610fbd565b8383611233565b5050565b610ba0848484610552565b610bac848484846113a2565b50505050565b6060610bbd82610ef8565b506000600660008481526020019081526020016000208054610bde90612450565b80601f0160208091040260200160405190810160405280929190818152602001828054610c0a90612450565b8015610c575780601f10610c2c57610100808354040283529160200191610c57565b820191906000526020600020905b815481529060010190602001808311610c3a57829003601f168201915b505050505090506000610c68611559565b90506000815103610c7d578192505050610cc0565b600082511115610cb2578082604051602001610c9a92919061279f565b60405160208183030381529060405292505050610cc0565b610cbb84611570565b925050505b919050565b60076000815480929190610cd8906127f2565b9190505550610ce9336007546115d9565b610d3960075483838080601f016020809104026020016040519081016040528093929190818152602001838380828437600081840152601f19601f820116905080830192505050505050506115f7565b7fe6cb7b6ed8bb672ca991382326836fec5eb1ecef5c78331032416a55f4a325e460075460003385856000604051610d7696959493929190612867565b60405180910390a15050565b6000600560008473ffffffffffffffffffffffffffffffffffffffff1673ffffffffffffffffffffffffffffffffffffffff16815260200190815260200160002060008373ffffffffffffffffffffffffffffffffffffffff1673ffffffffffffffffffffffffffffffffffffffff16815260200190815260200160002060009054906101000a900460ff16905092915050565b60007f80ac58cd000000000000000000000000000000000000000000000000000000007bffffffffffffffffffffffffffffffffffffffffffffffffffffffff1916827bffffffffffffffffffffffffffffffffffffffffffffffffffffffff19161480610ee157507f5b5e139f000000000000000000000000000000000000000000000000000000007bffffffffffffffffffffffffffffffffffffffffffffffffffffffff1916827bffffffffffffffffffffffffffffffffffffffffffffffffffffffff1916145b80610ef15750610ef082611653565b5b9050919050565b600080610f04836116bd565b9050600073ffffffffffffffffffffffffffffffffffffffff168173ffffffffffffffffffffffffffffffffffffffff1603610f7757826040517f7e273289000000000000000000000000000000000000000000000000000000008152600401610f6e91906120b5565b60405180910390fd5b80915050919050565b60006004600083815260200190815260200160002060009054906101000a900473ffffffffffffffffffffffffffffffffffffffff169050919050565b600033905090565b610fd283838360016116fa565b505050565b600080610fe3846116bd565b9050600073ffffffffffffffffffffffffffffffffffffffff168373ffffffffffffffffffffffffffffffffffffffff1614611025576110248184866118bf565b5b600073ffffffffffffffffffffffffffffffffffffffff168173ffffffffffffffffffffffffffffffffffffffff16146110b6576110676000856000806116fa565b6001600360008373ffffffffffffffffffffffffffffffffffffffff1673ffffffffffffffffffffffffffffffffffffffff168152602001908152602001600020600082825403925050819055505b600073ffffffffffffffffffffffffffffffffffffffff168573ffffffffffffffffffffffffffffffffffffffff1614611139576001600360008773ffffffffffffffffffffffffffffffffffffffff1673ffffffffffffffffffffffffffffffffffffffff168152602001908152602001600020600082825401925050819055505b846002600086815260200190815260200160002060006101000a81548173ffffffffffffffffffffffffffffffffffffffff021916908373ffffffffffffffffffffffffffffffffffffffff160217905550838573ffffffffffffffffffffffffffffffffffffffff168273ffffffffffffffffffffffffffffffffffffffff167fddf252ad1be2c89b69c2b068fc378daa952ba7f163c4a11628f55a4df523b3ef60405160405180910390a4809150509392505050565b600081836111ff91906128c3565b905092915050565b600081836112159190612934565b905092915050565b6000818361122b9190612965565b905092915050565b600073ffffffffffffffffffffffffffffffffffffffff168273ffffffffffffffffffffffffffffffffffffffff16036112a457816040517f5b08ba1800000000000000000000000000000000000000000000000000000000815260040161129b9190611f9f565b60405180910390fd5b80600560008573ffffffffffffffffffffffffffffffffffffffff1673ffffffffffffffffffffffffffffffffffffffff16815260200190815260200160002060008473ffffffffffffffffffffffffffffffffffffffff1673ffffffffffffffffffffffffffffffffffffffff16815260200190815260200160002060006101000a81548160ff0219169083151502179055508173ffffffffffffffffffffffffffffffffffffffff168373ffffffffffffffffffffffffffffffffffffffff167f17307eab39ab6107e8899845ad3d59bd9653f200f220920489ca2b5937696c31836040516113959190611e2e565b60405180910390a3505050565b60008373ffffffffffffffffffffffffffffffffffffffff163b1115611553578273ffffffffffffffffffffffffffffffffffffffff1663150b7a026113e6610fbd565b8685856040518563ffffffff1660e01b815260040161140894939291906129ee565b6020604051808303816000875af192505050801561144457506040513d601f19601f820116820180604052508101906114419190612a4f565b60015b6114c8573d8060008114611474576040519150601f19603f3d011682016040523d82523d6000602084013e611479565b606091505b5060008151036114c057836040517f64a0ae920000000000000000000000000000000000000000000000000000000081526004016114b79190611f9f565b60405180910390fd5b805181602001fd5b63150b7a0260e01b7bffffffffffffffffffffffffffffffffffffffffffffffffffffffff1916817bffffffffffffffffffffffffffffffffffffffffffffffffffffffff19161461155157836040517f64a0ae920000000000000000000000000000000000000000000000000000000081526004016115489190611f9f565b60405180910390fd5b505b50505050565b606060405180602001604052806000815250905090565b606061157b82610ef8565b506000611586611559565b905060008151116115a657604051806020016040528060008152506115d1565b806115b084611983565b6040516020016115c192919061279f565b6040516020818303038152906040525b915050919050565b6115f3828260405180602001604052806000815250611a51565b5050565b806006600084815260200190815260200160002090816116179190612c1e565b507ff8e1a15aba9398e019f0b49df1a4fde98ee17ae345cb5f6b5e2c27f5033e8ce78260405161164791906120b5565b60405180910390a15050565b60007f01ffc9a7000000000000000000000000000000000000000000000000000000007bffffffffffffffffffffffffffffffffffffffffffffffffffffffff1916827bffffffffffffffffffffffffffffffffffffffffffffffffffffffff1916149050919050565b60006002600083815260200190815260200160002060009054906101000a900473ffffffffffffffffffffffffffffffffffffffff169050919050565b80806117335750600073ffffffffffffffffffffffffffffffffffffffff168273ffffffffffffffffffffffffffffffffffffffff1614155b1561186757600061174384610ef8565b9050600073ffffffffffffffffffffffffffffffffffffffff168373ffffffffffffffffffffffffffffffffffffffff16141580156117ae57508273ffffffffffffffffffffffffffffffffffffffff168173ffffffffffffffffffffffffffffffffffffffff1614155b80156117c157506117bf8184610d82565b155b1561180357826040517fa9fbf51f0000000000000000000000000000000000000000000000000000000081526004016117fa9190611f9f565b60405180910390fd5b811561186557838573ffffffffffffffffffffffffffffffffffffffff168273ffffffffffffffffffffffffffffffffffffffff167f8c5be1e5ebec7d5bd14f71427d1e84f3dd0314c0f7b2291e5b200ac8c7c3b92560405160405180910390a45b505b836004600085815260200190815260200160002060006101000a81548173ffffffffffffffffffffffffffffffffffffffff021916908373ffffffffffffffffffffffffffffffffffffffff16021790555050505050565b6118ca838383611a6d565b61197e57600073ffffffffffffffffffffffffffffffffffffffff168373ffffffffffffffffffffffffffffffffffffffff160361193f57806040517f7e27328900000000000000000000000000000000000000000000000000000000815260040161193691906120b5565b60405180910390fd5b81816040517f177e802f000000000000000000000000000000000000000000000000000000008152600401611975929190612cf0565b60405180910390fd5b505050565b60606000600161199284611b2e565b01905060008167ffffffffffffffff8111156119b1576119b0612186565b5b6040519080825280601f01601f1916602001820160405280156119e35781602001600182028036833780820191505090505b509050600082602001820190505b600115611a46578080600190039150507f3031323334353637383961626364656600000000000000000000000000000000600a86061a8153600a8581611a3a57611a39612905565b5b049450600085036119f1575b819350505050919050565b611a5b8383611c81565b611a6860008484846113a2565b505050565b60008073ffffffffffffffffffffffffffffffffffffffff168373ffffffffffffffffffffffffffffffffffffffff1614158015611b2557508273ffffffffffffffffffffffffffffffffffffffff168473ffffffffffffffffffffffffffffffffffffffff161480611ae65750611ae58484610d82565b5b80611b2457508273ffffffffffffffffffffffffffffffffffffffff16611b0c83610f80565b73ffffffffffffffffffffffffffffffffffffffff16145b5b90509392505050565b600080600090507a184f03e93ff9f4daa797ed6e38ed64bf6a1f0100000000000000008310611b8c577a184f03e93ff9f4daa797ed6e38ed64bf6a1f0100000000000000008381611b8257611b81612905565b5b0492506040810190505b6d04ee2d6d415b85acef81000000008310611bc9576d04ee2d6d415b85acef81000000008381611bbf57611bbe612905565b5b0492506020810190505b662386f26fc100008310611bf857662386f26fc100008381611bee57611bed612905565b5b0492506010810190505b6305f5e1008310611c21576305f5e1008381611c1757611c16612905565b5b0492506008810190505b6127108310611c46576127108381611c3c57611c3b612905565b5b0492506004810190505b60648310611c695760648381611c5f57611c5e612905565b5b0492506002810190505b600a8310611c78576001810190505b80915050919050565b600073ffffffffffffffffffffffffffffffffffffffff168273ffffffffffffffffffffffffffffffffffffffff1603611cf35760006040517f64a0ae92000000000000000000000000000000000000000000000000000000008152600401611cea9190611f9f565b60405180910390fd5b6000611d0183836000610fd7565b9050600073ffffffffffffffffffffffffffffffffffffffff168173ffffffffffffffffffffffffffffffffffffffff1614611d755760006040517f73c6ac6e000000000000000000000000000000000000000000000000000000008152600401611d6c9190611f9f565b60405180910390fd5b505050565b6000604051905090565b600080fd5b600080fd5b60007fffffffff0000000000000000000000000000000000000000000000000000000082169050919050565b611dc381611d8e565b8114611dce57600080fd5b50565b600081359050611de081611dba565b92915050565b600060208284031215611dfc57611dfb611d84565b5b6000611e0a84828501611dd1565b91505092915050565b60008115159050919050565b611e2881611e13565b82525050565b6000602082019050611e436000830184611e1f565b92915050565b600081519050919050565b600082825260208201905092915050565b60005b83811015611e83578082015181840152602081019050611e68565b60008484015250505050565b6000601f19601f8301169050919050565b6000611eab82611e49565b611eb58185611e54565b9350611ec5818560208601611e65565b611ece81611e8f565b840191505092915050565b60006020820190508181036000830152611ef38184611ea0565b905092915050565b6000819050919050565b611f0e81611efb565b8114611f1957600080fd5b50565b600081359050611f2b81611f05565b92915050565b600060208284031215611f4757611f46611d84565b5b6000611f5584828501611f1c565b91505092915050565b600073ffffffffffffffffffffffffffffffffffffffff82169050919050565b6000611f8982611f5e565b9050919050565b611f9981611f7e565b82525050565b6000602082019050611fb46000830184611f90565b92915050565b611fc381611f7e565b8114611fce57600080fd5b50565b600081359050611fe081611fba565b92915050565b60008060408385031215611ffd57611ffc611d84565b5b600061200b85828601611fd1565b925050602061201c85828601611f1c565b9150509250929050565b60008060006060848603121561203f5761203e611d84565b5b600061204d86828701611fd1565b935050602061205e86828701611fd1565b925050604061206f86828701611f1c565b9150509250925092565b60006020828403121561208f5761208e611d84565b5b600061209d84828501611fd1565b91505092915050565b6120af81611efb565b82525050565b60006020820190506120ca60008301846120a6565b92915050565b600080604083850312156120e7576120e6611d84565b5b60006120f585828601611f1c565b925050602061210685828601611f1c565b9150509250929050565b61211981611e13565b811461212457600080fd5b50565b60008135905061213681612110565b92915050565b6000806040838503121561215357612152611d84565b5b600061216185828601611fd1565b925050602061217285828601612127565b9150509250929050565b600080fd5b600080fd5b7f4e487b7100000000000000000000000000000000000000000000000000000000600052604160045260246000fd5b6121be82611e8f565b810181811067ffffffffffffffff821117156121dd576121dc612186565b5b80604052505050565b60006121f0611d7a565b90506121fc82826121b5565b919050565b600067ffffffffffffffff82111561221c5761221b612186565b5b61222582611e8f565b9050602081019050919050565b82818337600083830152505050565b600061225461224f84612201565b6121e6565b9050828152602081018484840111156122705761226f612181565b5b61227b848285612232565b509392505050565b600082601f8301126122985761229761217c565b5b81356122a8848260208601612241565b91505092915050565b600080600080608085870312156122cb576122ca611d84565b5b60006122d987828801611fd1565b94505060206122ea87828801611fd1565b93505060406122fb87828801611f1c565b925050606085013567ffffffffffffffff81111561231c5761231b611d89565b5b61232887828801612283565b91505092959194509250565b600080fd5b600080fd5b60008083601f8401126123545761235361217c565b5b8235905067ffffffffffffffff81111561237157612370612334565b5b60208301915083600182028301111561238d5761238c612339565b5b9250929050565b600080602083850312156123ab576123aa611d84565b5b600083013567ffffffffffffffff8111156123c9576123c8611d89565b5b6123d58582860161233e565b92509250509250929050565b600080604083850312156123f8576123f7611d84565b5b600061240685828601611fd1565b925050602061241785828601611fd1565b9150509250929050565b7f4e487b7100000000000000000000000000000000000000000000000000000000600052602260045260246000fd5b6000600282049050600182168061246857607f821691505b60208210810361247b5761247a612421565b5b50919050565b60006060820190506124966000830186611f90565b6124a360208301856120a6565b6124b06040830184611f90565b949350505050565b7f536f727279202c2074686973204e4654206973206e6f74206c6973746564206660008201527f6f722073616c652e000000000000000000000000000000000000000000000000602082015250565b6000612514602883611e54565b915061251f826124b8565b604082019050919050565b6000602082019050818103600083015261254381612507565b9050919050565b7f507269636520696e636f72726563740000000000000000000000000000000000600082015250565b6000612580600f83611e54565b915061258b8261254a565b602082019050919050565b600060208201905081810360008301526125af81612573565b9050919050565b50565b60006125c6600083611e54565b91506125d1826125b6565b600082019050919050565b6000819050919050565b6000819050919050565b600061260b612606612601846125dc565b6125e6565b611efb565b9050919050565b61261b816125f0565b82525050565b600060a08201905061263660008301876120a6565b6126436020830186611f90565b6126506040830185611f90565b8181036060830152612661816125b9565b90506126706080830184612612565b95945050505050565b7f4e46542070726963652073686f756c642062652067726561746572207468616e60008201527f207a65726f000000000000000000000000000000000000000000000000000000602082015250565b60006126d5602583611e54565b91506126e082612679565b604082019050919050565b60006020820190508181036000830152612704816126c8565b9050919050565b600060a08201905061272060008301876120a6565b61272d6020830186611f90565b61273a6040830185611f90565b818103606083015261274b816125b9565b905061275a60808301846120a6565b95945050505050565b600081905092915050565b600061277982611e49565b6127838185612763565b9350612793818560208601611e65565b80840191505092915050565b60006127ab828561276e565b91506127b7828461276e565b91508190509392505050565b7f4e487b7100000000000000000000000000000000000000000000000000000000600052601160045260246000fd5b60006127fd82611efb565b91507fffffffffffffffffffffffffffffffffffffffffffffffffffffffffffffffff820361282f5761282e6127c3565b5b600182019050919050565b60006128468385611e54565b9350612853838584612232565b61285c83611e8f565b840190509392505050565b600060a08201905061287c60008301896120a6565b6128896020830188611f90565b6128966040830187611f90565b81810360608301526128a981858761283a565b90506128b86080830184612612565b979650505050505050565b60006128ce82611efb565b91506128d983611efb565b92508282026128e781611efb565b915082820484148315176128fe576128fd6127c3565b5b5092915050565b7f4e487b7100000000000000000000000000000000000000000000000000000000600052601260045260246000fd5b600061293f82611efb565b915061294a83611efb565b92508261295a57612959612905565b5b828204905092915050565b600061297082611efb565b915061297b83611efb565b9250828203905081811115612993576129926127c3565b5b92915050565b600081519050919050565b600082825260208201905092915050565b60006129c082612999565b6129ca81856129a4565b93506129da818560208601611e65565b6129e381611e8f565b840191505092915050565b6000608082019050612a036000830187611f90565b612a106020830186611f90565b612a1d60408301856120a6565b8181036060830152612a2f81846129b5565b905095945050505050565b600081519050612a4981611dba565b92915050565b600060208284031215612a6557612a64611d84565b5b6000612a7384828501612a3a565b91505092915050565b60008190508160005260206000209050919050565b60006020601f8301049050919050565b600082821b905092915050565b600060088302612ade7fffffffffffffffffffffffffffffffffffffffffffffffffffffffffffffffff82612aa1565b612ae88683612aa1565b95508019841693508086168417925050509392505050565b6000612b1b612b16612b1184611efb565b6125e6565b611efb565b9050919050565b6000819050919050565b612b3583612b00565b612b49612b4182612b22565b848454612aae565b825550505050565b600090565b612b5e612b51565b612b69818484612b2c565b505050565b5b81811015612b8d57612b82600082612b56565b600181019050612b6f565b5050565b601f821115612bd257612ba381612a7c565b612bac84612a91565b81016020851015612bbb578190505b612bcf612bc785612a91565b830182612b6e565b50505b505050565b600082821c905092915050565b6000612bf560001984600802612bd7565b1980831691505092915050565b6000612c0e8383612be4565b9150826002028217905092915050565b612c2782611e49565b67ffffffffffffffff811115612c4057612c3f612186565b5b612c4a8254612450565b612c55828285612b91565b600060209050601f831160018114612c885760008415612c76578287015190505b612c808582612c02565b865550612ce8565b601f198416612c9686612a7c565b60005b82811015612cbe57848901518255600182019150602085019450602081019050612c99565b86831015612cdb5784890151612cd7601f891682612be4565b8355505b6001600288020188555050505b505050505050565b6000604082019050612d056000830185611f90565b612d1260208301846120a6565b939250505056fea264697066735822122099bb498c5567dee7f0abf3674e800123826e7c321792158871729f9b1a16008e64736f6c63430008140033",
  "linkReferences": {},
  "deployedLinkReferences": {}
}